{
  "_format": "hh-sol-artifact-1",
  "contractName": "MainVoting",
  "sourceName": "contracts/MainVoting.sol",
  "abi": [
    {
      "inputs": [],
      "name": "ballotId",
      "outputs": [
        {
          "internalType": "uint256",
          "name": "",
          "type": "uint256"
        }
      ],
      "stateMutability": "view",
      "type": "function"
    },
    {
      "inputs": [
        {
          "internalType": "uint256",
          "name": "",
          "type": "uint256"
        }
      ],
      "name": "ballots",
      "outputs": [
        {
          "internalType": "address",
          "name": "voting",
          "type": "address"
        },
        {
          "internalType": "string",
          "name": "name",
          "type": "string"
        },
        {
          "internalType": "string",
          "name": "description",
          "type": "string"
        }
      ],
      "stateMutability": "view",
      "type": "function"
    },
    {
      "inputs": [
        {
          "internalType": "string",
          "name": "_name",
          "type": "string"
        },
        {
          "internalType": "string",
          "name": "_description",
          "type": "string"
        }
      ],
      "name": "createBallot",
      "outputs": [],
      "stateMutability": "nonpayable",
      "type": "function"
    },
    {
      "inputs": [],
      "name": "owner",
      "outputs": [
        {
          "internalType": "address",
          "name": "",
          "type": "address"
        }
      ],
      "stateMutability": "view",
      "type": "function"
    }
  ],
  "bytecode": "0x6080604052336000806101000a81548173ffffffffffffffffffffffffffffffffffffffff021916908373ffffffffffffffffffffffffffffffffffffffff160217905550600060015534801561005557600080fd5b506125ee806100656000396000f3fe60806040523480156200001157600080fd5b5060043610620000525760003560e01c80635c632b3814620000575780636fa4f103146200008f5780638da5cb5b14620000af578063db4dff3814620000d1575b600080fd5b6200007560048036038101906200006f919062000572565b620000f3565b60405162000086939291906200062f565b60405180910390f35b620000ad6004803603810190620000a79190620004ff565b6200025d565b005b620000b96200038e565b604051620000c8919062000612565b60405180910390f35b620000db620003b2565b604051620000ea9190620006d5565b60405180910390f35b60026020528060005260406000206000915090508060000160009054906101000a900473ffffffffffffffffffffffffffffffffffffffff16908060010180546200013e9062000804565b80601f01602080910402602001604051908101604052809291908181526020018280546200016c9062000804565b8015620001bd5780601f106200019157610100808354040283529160200191620001bd565b820191906000526020600020905b8154815290600101906020018083116200019f57829003601f168201915b505050505090806002018054620001d49062000804565b80601f0160208091040260200160405190810160405280929190818152602001828054620002029062000804565b8015620002535780601f10620002275761010080835404028352916020019162000253565b820191906000526020600020905b8154815290600101906020018083116200023557829003601f168201915b5050505050905083565b60008282600a336040516200027290620003b8565b6200028194939291906200067a565b604051809103906000f0801580156200029e573d6000803e3d6000fd5b50905060405180606001604052808273ffffffffffffffffffffffffffffffffffffffff1681526020018481526020018381525060026000600154815260200190815260200160002060008201518160000160006101000a81548173ffffffffffffffffffffffffffffffffffffffff021916908373ffffffffffffffffffffffffffffffffffffffff16021790555060208201518160010190805190602001906200034c929190620003c6565b5060408201518160020190805190602001906200036b929190620003c6565b5090505060016000815480929190620003849062000870565b9190505550505050565b60008054906101000a900473ffffffffffffffffffffffffffffffffffffffff1681565b60015481565b611c42806200097783390190565b828054620003d49062000804565b90600052602060002090601f016020900481019282620003f8576000855562000444565b82601f106200041357805160ff191683800117855562000444565b8280016001018555821562000444579182015b828111156200044357825182559160200191906001019062000426565b5b50905062000453919062000457565b5090565b5b808211156200047257600081600090555060010162000458565b5090565b60006200048d62000487846200071b565b620006f2565b905082815260208101848484011115620004a657600080fd5b620004b3848285620007bf565b509392505050565b600082601f830112620004cd57600080fd5b8135620004df84826020860162000476565b91505092915050565b600081359050620004f9816200095c565b92915050565b600080604083850312156200051357600080fd5b600083013567ffffffffffffffff8111156200052e57600080fd5b6200053c85828601620004bb565b925050602083013567ffffffffffffffff8111156200055a57600080fd5b6200056885828601620004bb565b9150509250929050565b6000602082840312156200058557600080fd5b60006200059584828501620004e8565b91505092915050565b620005a9816200076d565b82525050565b620005ba81620007ab565b82525050565b6000620005cd8262000751565b620005d981856200075c565b9350620005eb818560208601620007ce565b620005f6816200094b565b840191505092915050565b6200060c81620007a1565b82525050565b60006020820190506200062960008301846200059e565b92915050565b60006060820190506200064660008301866200059e565b81810360208301526200065a8185620005c0565b90508181036040830152620006708184620005c0565b9050949350505050565b60006080820190508181036000830152620006968187620005c0565b90508181036020830152620006ac8186620005c0565b9050620006bd6040830185620005af565b620006cc60608301846200059e565b95945050505050565b6000602082019050620006ec600083018462000601565b92915050565b6000620006fe62000711565b90506200070c82826200083a565b919050565b6000604051905090565b600067ffffffffffffffff8211156200073957620007386200091c565b5b62000744826200094b565b9050602081019050919050565b600081519050919050565b600082825260208201905092915050565b60006200077a8262000781565b9050919050565b600073ffffffffffffffffffffffffffffffffffffffff82169050919050565b6000819050919050565b6000620007b882620007a1565b9050919050565b82818337600083830152505050565b60005b83811015620007ee578082015181840152602081019050620007d1565b83811115620007fe576000848401525b50505050565b600060028204905060018216806200081d57607f821691505b60208210811415620008345762000833620008ed565b5b50919050565b62000845826200094b565b810181811067ffffffffffffffff821117156200086757620008666200091c565b5b80604052505050565b60006200087d82620007a1565b91507fffffffffffffffffffffffffffffffffffffffffffffffffffffffffffffffff821415620008b357620008b2620008be565b5b600182019050919050565b7f4e487b7100000000000000000000000000000000000000000000000000000000600052601160045260246000fd5b7f4e487b7100000000000000000000000000000000000000000000000000000000600052602260045260246000fd5b7f4e487b7100000000000000000000000000000000000000000000000000000000600052604160045260246000fd5b6000601f19601f8301169050919050565b6200096781620007a1565b81146200097357600080fd5b5056fe608060405260006008553480156200001657600080fd5b5060405162001c4238038062001c4283398181016040528101906200003c91906200020f565b836001908051906020019062000054929190620000bf565b5082600290805190602001906200006d929190620000bf565b5081600481905550806000806101000a81548173ffffffffffffffffffffffffffffffffffffffff021916908373ffffffffffffffffffffffffffffffffffffffff160217905550505050506200048f565b828054620000cd9062000380565b90600052602060002090601f016020900481019282620000f157600085556200013d565b82601f106200010c57805160ff19168380011785556200013d565b828001600101855582156200013d579182015b828111156200013c5782518255916020019190600101906200011f565b5b5090506200014c919062000150565b5090565b5b808211156200016b57600081600090555060010162000151565b5090565b6000620001866200018084620002d6565b620002ad565b9050828152602081018484840111156200019f57600080fd5b620001ac8482856200034a565b509392505050565b600081519050620001c5816200045b565b92915050565b600082601f830112620001dd57600080fd5b8151620001ef8482602086016200016f565b91505092915050565b600081519050620002098162000475565b92915050565b600080600080608085870312156200022657600080fd5b600085015167ffffffffffffffff8111156200024157600080fd5b6200024f87828801620001cb565b945050602085015167ffffffffffffffff8111156200026d57600080fd5b6200027b87828801620001cb565b93505060406200028e87828801620001f8565b9250506060620002a187828801620001b4565b91505092959194509250565b6000620002b9620002cc565b9050620002c78282620003b6565b919050565b6000604051905090565b600067ffffffffffffffff821115620002f457620002f36200041b565b5b620002ff826200044a565b9050602081019050919050565b6000620003198262000320565b9050919050565b600073ffffffffffffffffffffffffffffffffffffffff82169050919050565b6000819050919050565b60005b838110156200036a5780820151818401526020810190506200034d565b838111156200037a576000848401525b50505050565b600060028204905060018216806200039957607f821691505b60208210811415620003b057620003af620003ec565b5b50919050565b620003c1826200044a565b810181811067ffffffffffffffff82111715620003e357620003e26200041b565b5b80604052505050565b7f4e487b7100000000000000000000000000000000000000000000000000000000600052602260045260246000fd5b7f4e487b7100000000000000000000000000000000000000000000000000000000600052604160045260246000fd5b6000601f19601f8301169050919050565b62000466816200030c565b81146200047257600080fd5b50565b620004808162000340565b81146200048c57600080fd5b50565b6117a3806200049f6000396000f3fe608060405234801561001057600080fd5b50600436106101005760003560e01c806347535d7b11610097578063a3ec138d11610066578063a3ec138d14610263578063ca6a681b14610293578063dff67f6b146102af578063f41645c2146102e257610100565b806347535d7b146101eb5780635df17077146102095780637284e416146102275780638da5cb5b1461024557610100565b80631a1dbabb116100d35780631a1dbabb146101775780631cfe7e5a14610195578063255adfd4146101b15780633f436a01146101e157610100565b80630121b93f1461010557806306fdde0314610121578063166ffeba1461013f578063171b11c81461015b575b600080fd5b61011f600480360381019061011a9190611091565b6102ec565b005b610129610553565b604051610136919061124b565b60405180910390f35b61015960048036038101906101549190611091565b6105e1565b005b61017560048036038101906101709190611027565b610770565b005b61017f6108b0565b60405161018c919061134d565b60405180910390f35b6101af60048036038101906101aa9190611050565b6108b6565b005b6101cb60048036038101906101c69190611027565b610a8c565b6040516101d89190611230565b60405180910390f35b6101e9610aac565b005b6101f3610b57565b6040516102009190611230565b60405180910390f35b610211610b6a565b60405161021e919061134d565b60405180910390f35b61022f610b70565b60405161023c919061124b565b60405180910390f35b61024d610bfe565b60405161025a9190611215565b60405180910390f35b61027d60048036038101906102789190611027565b610c22565b60405161028a9190611230565b60405180910390f35b6102ad60048036038101906102a89190611027565b610c42565b005b6102c960048036038101906102c49190611091565b610d82565b6040516102d99493929190611368565b60405180910390f35b6102ea610e47565b005b600360009054906101000a900460ff1661033b576040517f08c379a0000000000000000000000000000000000000000000000000000000008152600401610332906112cd565b60405180910390fd5b806008548110801561036d57506005600082815260200190815260200160002060030160009054906101000a900460ff165b6103ac576040517f08c379a00000000000000000000000000000000000000000000000000000000081526004016103a3906112ad565b60405180910390fd5b600760003373ffffffffffffffffffffffffffffffffffffffff1673ffffffffffffffffffffffffffffffffffffffff16815260200190815260200160002060009054906101000a900460ff16610438576040517f08c379a000000000000000000000000000000000000000000000000000000000815260040161042f9061132d565b60405180910390fd5b60001515600660003373ffffffffffffffffffffffffffffffffffffffff1673ffffffffffffffffffffffffffffffffffffffff16815260200190815260200160002060009054906101000a900460ff161515146104cb576040517f08c379a00000000000000000000000000000000000000000000000000000000081526004016104c29061130d565b60405180910390fd5b6001600660003373ffffffffffffffffffffffffffffffffffffffff1673ffffffffffffffffffffffffffffffffffffffff16815260200190815260200160002060006101000a81548160ff02191690831515021790555060056000838152602001908152602001600020600201600081548092919061054a90611513565b91905055505050565b60018054610560906114b0565b80601f016020809104026020016040519081016040528092919081815260200182805461058c906114b0565b80156105d95780601f106105ae576101008083540402835291602001916105d9565b820191906000526020600020905b8154815290600101906020018083116105bc57829003601f168201915b505050505081565b60008054906101000a900473ffffffffffffffffffffffffffffffffffffffff1673ffffffffffffffffffffffffffffffffffffffff163373ffffffffffffffffffffffffffffffffffffffff161461066f576040517f08c379a0000000000000000000000000000000000000000000000000000000008152600401610666906112ed565b60405180910390fd5b60011515600360009054906101000a900460ff16151514156106c6576040517f08c379a00000000000000000000000000000000000000000000000000000000081526004016106bd9061126d565b60405180910390fd5b80600854811080156106f857506005600082815260200190815260200160002060030160009054906101000a900460ff165b610737576040517f08c379a000000000000000000000000000000000000000000000000000000000815260040161072e906112ad565b60405180910390fd5b600060056000848152602001908152602001600020905060008160030160006101000a81548160ff021916908315150217905550505050565b60008054906101000a900473ffffffffffffffffffffffffffffffffffffffff1673ffffffffffffffffffffffffffffffffffffffff163373ffffffffffffffffffffffffffffffffffffffff16146107fe576040517f08c379a00000000000000000000000000000000000000000000000000000000081526004016107f5906112ed565b60405180910390fd5b60011515600360009054906101000a900460ff1615151415610855576040517f08c379a000000000000000000000000000000000000000000000000000000000815260040161084c9061126d565b60405180910390fd5b6001600760008373ffffffffffffffffffffffffffffffffffffffff1673ffffffffffffffffffffffffffffffffffffffff16815260200190815260200160002060006101000a81548160ff02191690831515021790555050565b60085481565b60008054906101000a900473ffffffffffffffffffffffffffffffffffffffff1673ffffffffffffffffffffffffffffffffffffffff163373ffffffffffffffffffffffffffffffffffffffff1614610944576040517f08c379a000000000000000000000000000000000000000000000000000000000815260040161093b906112ed565b60405180910390fd5b60011515600360009054906101000a900460ff161515141561099b576040517f08c379a00000000000000000000000000000000000000000000000000000000081526004016109929061126d565b60405180910390fd5b600454600854106109e1576040517f08c379a00000000000000000000000000000000000000000000000000000000081526004016109d89061128d565b60405180910390fd5b604051806080016040528060085481526020018281526020016000815260200160011515815250600560006008548152602001908152602001600020600082015181600001556020820151816001019080519060200190610a43929190610ef2565b506040820151816002015560608201518160030160006101000a81548160ff02191690831515021790555090505060086000815480929190610a8490611513565b919050555050565b60076020528060005260406000206000915054906101000a900460ff1681565b60008054906101000a900473ffffffffffffffffffffffffffffffffffffffff1673ffffffffffffffffffffffffffffffffffffffff163373ffffffffffffffffffffffffffffffffffffffff1614610b3a576040517f08c379a0000000000000000000000000000000000000000000000000000000008152600401610b31906112ed565b60405180910390fd5b6000600360006101000a81548160ff021916908315150217905550565b600360009054906101000a900460ff1681565b60045481565b60028054610b7d906114b0565b80601f0160208091040260200160405190810160405280929190818152602001828054610ba9906114b0565b8015610bf65780601f10610bcb57610100808354040283529160200191610bf6565b820191906000526020600020905b815481529060010190602001808311610bd957829003601f168201915b505050505081565b60008054906101000a900473ffffffffffffffffffffffffffffffffffffffff1681565b60066020528060005260406000206000915054906101000a900460ff1681565b60008054906101000a900473ffffffffffffffffffffffffffffffffffffffff1673ffffffffffffffffffffffffffffffffffffffff163373ffffffffffffffffffffffffffffffffffffffff1614610cd0576040517f08c379a0000000000000000000000000000000000000000000000000000000008152600401610cc7906112ed565b60405180910390fd5b60011515600360009054906101000a900460ff1615151415610d27576040517f08c379a0000000000000000000000000000000000000000000000000000000008152600401610d1e9061126d565b60405180910390fd5b6000600760008373ffffffffffffffffffffffffffffffffffffffff1673ffffffffffffffffffffffffffffffffffffffff16815260200190815260200160002060006101000a81548160ff02191690831515021790555050565b6005602052806000526040600020600091509050806000015490806001018054610dab906114b0565b80601f0160208091040260200160405190810160405280929190818152602001828054610dd7906114b0565b8015610e245780601f10610df957610100808354040283529160200191610e24565b820191906000526020600020905b815481529060010190602001808311610e0757829003601f168201915b5050505050908060020154908060030160009054906101000a900460ff16905084565b60008054906101000a900473ffffffffffffffffffffffffffffffffffffffff1673ffffffffffffffffffffffffffffffffffffffff163373ffffffffffffffffffffffffffffffffffffffff1614610ed5576040517f08c379a0000000000000000000000000000000000000000000000000000000008152600401610ecc906112ed565b60405180910390fd5b6001600360006101000a81548160ff021916908315150217905550565b828054610efe906114b0565b90600052602060002090601f016020900481019282610f205760008555610f67565b82601f10610f3957805160ff1916838001178555610f67565b82800160010185558215610f67579182015b82811115610f66578251825591602001919060010190610f4b565b5b509050610f749190610f78565b5090565b5b80821115610f91576000816000905550600101610f79565b5090565b6000610fa8610fa3846113d9565b6113b4565b905082815260208101848484011115610fc057600080fd5b610fcb84828561146e565b509392505050565b600081359050610fe28161173f565b92915050565b600082601f830112610ff957600080fd5b8135611009848260208601610f95565b91505092915050565b60008135905061102181611756565b92915050565b60006020828403121561103957600080fd5b600061104784828501610fd3565b91505092915050565b60006020828403121561106257600080fd5b600082013567ffffffffffffffff81111561107c57600080fd5b61108884828501610fe8565b91505092915050565b6000602082840312156110a357600080fd5b60006110b184828501611012565b91505092915050565b6110c381611426565b82525050565b6110d281611438565b82525050565b60006110e38261140a565b6110ed8185611415565b93506110fd81856020860161147d565b611106816115e9565b840191505092915050565b600061111e602283611415565b9150611129826115fa565b604082019050919050565b6000611141601383611415565b915061114c82611649565b602082019050919050565b6000611164602083611415565b915061116f82611672565b602082019050919050565b6000611187601283611415565b91506111928261169b565b602082019050919050565b60006111aa600a83611415565b91506111b5826116c4565b602082019050919050565b60006111cd601683611415565b91506111d8826116ed565b602082019050919050565b60006111f0601b83611415565b91506111fb82611716565b602082019050919050565b61120f81611464565b82525050565b600060208201905061122a60008301846110ba565b92915050565b600060208201905061124560008301846110c9565b92915050565b6000602082019050818103600083015261126581846110d8565b905092915050565b6000602082019050818103600083015261128681611111565b9050919050565b600060208201905081810360008301526112a681611134565b9050919050565b600060208201905081810360008301526112c681611157565b9050919050565b600060208201905081810360008301526112e68161117a565b9050919050565b600060208201905081810360008301526113068161119d565b9050919050565b60006020820190508181036000830152611326816111c0565b9050919050565b60006020820190508181036000830152611346816111e3565b9050919050565b60006020820190506113626000830184611206565b92915050565b600060808201905061137d6000830187611206565b818103602083015261138f81866110d8565b905061139e6040830185611206565b6113ab60608301846110c9565b95945050505050565b60006113be6113cf565b90506113ca82826114e2565b919050565b6000604051905090565b600067ffffffffffffffff8211156113f4576113f36115ba565b5b6113fd826115e9565b9050602081019050919050565b600081519050919050565b600082825260208201905092915050565b600061143182611444565b9050919050565b60008115159050919050565b600073ffffffffffffffffffffffffffffffffffffffff82169050919050565b6000819050919050565b82818337600083830152505050565b60005b8381101561149b578082015181840152602081019050611480565b838111156114aa576000848401525b50505050565b600060028204905060018216806114c857607f821691505b602082108114156114dc576114db61158b565b5b50919050565b6114eb826115e9565b810181811067ffffffffffffffff8211171561150a576115096115ba565b5b80604052505050565b600061151e82611464565b91507fffffffffffffffffffffffffffffffffffffffffffffffffffffffffffffffff8214156115515761155061155c565b5b600182019050919050565b7f4e487b7100000000000000000000000000000000000000000000000000000000600052601160045260246000fd5b7f4e487b7100000000000000000000000000000000000000000000000000000000600052602260045260246000fd5b7f4e487b7100000000000000000000000000000000000000000000000000000000600052604160045260246000fd5b6000601f19601f8301169050919050565b7f566f746174696f6e206973206f70656e2063616e6e6f74206265206368616e6760008201527f6564000000000000000000000000000000000000000000000000000000000000602082015250565b7f4d6178206f7074696f6e73207265616368656400000000000000000000000000600082015250565b7f496e76616c6964206f7074696f6e206f72206974207761732072656d6f766564600082015250565b7f566f746174696f6e20697320636c6f7365640000000000000000000000000000600082015250565b7f41646d696e206f6e6c7900000000000000000000000000000000000000000000600082015250565b7f596f75206861766520616c726561647920766f74656400000000000000000000600082015250565b7f596f7520617265206e6f7420616c6c6f77656420746f20766f74650000000000600082015250565b61174881611426565b811461175357600080fd5b50565b61175f81611464565b811461176a57600080fd5b5056fea264697066735822122096877e6dcefc92b9735287f6c7386d24ba821c386eab26e83afc7b4ac6368bbe64736f6c63430008040033a264697066735822122030b37f1a9d7073a61956b19a4c8e7c624d6fc6263374cf799c78ba38d8ccbc0264736f6c63430008040033",
  "linkReferences": {},
  "deployedLinkReferences": {}
}